{
  "_format": "hh-sol-artifact-1",
  "contractName": "CourseMarket",
  "sourceName": "contracts/CourseMarket.sol",
  "abi": [
    {
      "anonymous": false,
      "inputs": [
        {
          "indexed": true,
          "internalType": "address",
          "name": "buyer",
          "type": "address"
        },
        {
          "indexed": true,
          "internalType": "uint256",
          "name": "courseId",
          "type": "uint256"
        },
        {
          "indexed": false,
          "internalType": "string",
          "name": "web2CourseId",
          "type": "string"
        }
      ],
      "name": "CoursePurchased",
      "type": "event"
    },
    {
      "anonymous": false,
      "inputs": [
        {
          "indexed": true,
          "internalType": "address",
          "name": "previousOwner",
          "type": "address"
        },
        {
          "indexed": true,
          "internalType": "address",
          "name": "newOwner",
          "type": "address"
        }
      ],
      "name": "OwnershipTransferred",
      "type": "event"
    },
    {
      "inputs": [
        {
          "internalType": "string",
          "name": "web2CourseId",
          "type": "string"
        },
        {
          "internalType": "string",
          "name": "name",
          "type": "string"
        },
        {
          "internalType": "uint256",
          "name": "price",
          "type": "uint256"
        }
      ],
      "name": "addCourse",
      "outputs": [],
      "stateMutability": "nonpayable",
      "type": "function"
    },
    {
      "inputs": [],
      "name": "courseCount",
      "outputs": [
        {
          "internalType": "uint256",
          "name": "",
          "type": "uint256"
        }
      ],
      "stateMutability": "view",
      "type": "function"
    },
    {
      "inputs": [
        {
          "internalType": "uint256",
          "name": "",
          "type": "uint256"
        }
      ],
      "name": "courses",
      "outputs": [
        {
          "internalType": "string",
          "name": "web2CourseId",
          "type": "string"
        },
        {
          "internalType": "string",
          "name": "name",
          "type": "string"
        },
        {
          "internalType": "uint256",
          "name": "price",
          "type": "uint256"
        },
        {
          "internalType": "bool",
          "name": "isActive",
          "type": "bool"
        },
        {
          "internalType": "address",
          "name": "creator",
          "type": "address"
        }
      ],
      "stateMutability": "view",
      "type": "function"
    },
    {
      "inputs": [
        {
          "internalType": "address",
          "name": "user",
          "type": "address"
        },
        {
          "internalType": "string",
          "name": "web2CourseId",
          "type": "string"
        }
      ],
      "name": "hasCourse",
      "outputs": [
        {
          "internalType": "bool",
          "name": "",
          "type": "bool"
        }
      ],
      "stateMutability": "view",
      "type": "function"
    },
    {
      "inputs": [],
      "name": "owner",
      "outputs": [
        {
          "internalType": "address",
          "name": "",
          "type": "address"
        }
      ],
      "stateMutability": "view",
      "type": "function"
    },
    {
      "inputs": [
        {
          "internalType": "string",
          "name": "web2CourseId",
          "type": "string"
        }
      ],
      "name": "purchaseCourse",
      "outputs": [],
      "stateMutability": "nonpayable",
      "type": "function"
    },
    {
      "inputs": [],
      "name": "renounceOwnership",
      "outputs": [],
      "stateMutability": "nonpayable",
      "type": "function"
    },
    {
      "inputs": [
        {
          "internalType": "address",
          "name": "newOwner",
          "type": "address"
        }
      ],
      "name": "transferOwnership",
      "outputs": [],
      "stateMutability": "nonpayable",
      "type": "function"
    },
    {
      "inputs": [
        {
          "internalType": "address",
          "name": "",
          "type": "address"
        },
        {
          "internalType": "uint256",
          "name": "",
          "type": "uint256"
        }
      ],
      "name": "userCourses",
      "outputs": [
        {
          "internalType": "bool",
          "name": "",
          "type": "bool"
        }
      ],
      "stateMutability": "view",
      "type": "function"
    },
    {
      "inputs": [
        {
          "internalType": "string",
          "name": "",
          "type": "string"
        }
      ],
      "name": "web2ToCourseId",
      "outputs": [
        {
          "internalType": "uint256",
          "name": "",
          "type": "uint256"
        }
      ],
      "stateMutability": "view",
      "type": "function"
    },
    {
      "inputs": [],
      "name": "yiDengToken",
      "outputs": [
        {
          "internalType": "contract YiDengToken",
          "name": "",
          "type": "address"
        }
      ],
      "stateMutability": "view",
      "type": "function"
    }
  ],
  "bytecode": "0x6080604052348015600f57600080fd5b50601733601b565b606b565b600080546001600160a01b038381166001600160a01b0319831681178455604051919092169283917f8be0079c531659141344cd1fd0a4f28419497f9722a3daafe3b4186f6b6457e09190a35050565b610f608061007a6000396000f3fe608060405234801561001057600080fd5b50600436106100995760003560e01c80630262232b1461009e57806344a8ef19146100ce57806366055159146100e357806367589b6f146100fa578063715018a61461010d5780638da5cb5b1461011557806393a05c201461012657806396f979d2146101645780639b84006e14610188578063dd403ce1146101b3578063f2fde38b146101c6575b600080fd5b6001546100b1906001600160a01b031681565b6040516001600160a01b0390911681526020015b60405180910390f35b6100e16100dc366004610b25565b6101d9565b005b6100ec60055481565b6040519081526020016100c5565b6100e1610108366004610b96565b610383565b6100e161078e565b6000546001600160a01b03166100b1565b610154610134366004610bee565b600460209081526000928352604080842090915290825290205460ff1681565b60405190151581526020016100c5565b610177610172366004610c18565b6107a2565b6040516100c5959493929190610c81565b6100ec610196366004610b96565b805160208183018101805160038252928201919093012091525481565b6101546101c1366004610ccd565b6108ed565b6100e16101d4366004610d1a565b61095f565b6101e16109d8565b60008351116102375760405162461bcd60e51b815260206004820152601e60248201527f5765623220636f757273652049442063616e6e6f7420626520656d707479000060448201526064015b60405180910390fd5b6003836040516102479190610d3c565b90815260200160405180910390205460001461029d5760405162461bcd60e51b8152602060048201526015602482015274436f7572736520616c72656164792065786973747360581b604482015260640161022e565b600580549060006102ad83610d58565b90915550506040805160a0810182528481526020808201859052818301849052600160608301523360808301526005546000908152600290915291909120815181906102f99082610e08565b506020820151600182019061030e9082610e08565b5060408281015160028301556060830151600392830180546080909501516001600160a01b031661010002610100600160a81b0319921515929092166001600160a81b03199095169490941717909255600554915161036e908690610d3c565b90815260405190819003602001902055505050565b60006003826040516103959190610d3c565b9081526020016040518091039020549050600081116103c65760405162461bcd60e51b815260040161022e90610ec6565b600081815260026020526040808220815160a081019092528054829082906103ed90610d7f565b80601f016020809104026020016040519081016040528092919081815260200182805461041990610d7f565b80156104665780601f1061043b57610100808354040283529160200191610466565b820191906000526020600020905b81548152906001019060200180831161044957829003601f168201915b5050505050815260200160018201805461047f90610d7f565b80601f01602080910402602001604051908101604052809291908181526020018280546104ab90610d7f565b80156104f85780601f106104cd576101008083540402835291602001916104f8565b820191906000526020600020905b8154815290600101906020018083116104db57829003601f168201915b50505091835250506002820154602082015260039091015460ff81161515604083015261010090046001600160a01b03166060918201528101519091506105755760405162461bcd60e51b8152602060048201526011602482015270436f75727365206e6f742061637469766560781b604482015260640161022e565b33600090815260046020908152604080832085845290915290205460ff16156105d45760405162461bcd60e51b8152602060048201526011602482015270105b1c9958591e481c1d5c98da185cd959607a1b604482015260640161022e565b826040516020016105e59190610d3c565b60408051601f198184030181529082905280516020918201208351909261060c9201610d3c565b60405160208183030381529060405280519060200120146106645760405162461bcd60e51b8152602060048201526012602482015271086deeae4e6ca40928840dad2e6dac2e8c6d60731b604482015260640161022e565b600154608082015160408084015190516323b872dd60e01b81523360048201526001600160a01b03928316602482015260448101919091529116906323b872dd906064016020604051808303816000875af11580156106c7573d6000803e3d6000fd5b505050506040513d601f19601f820116820180604052508101906106eb9190610ef5565b6107295760405162461bcd60e51b815260206004820152600f60248201526e151c985b9cd9995c8819985a5b1959608a1b604482015260640161022e565b33600081815260046020908152604080832086845290915290819020805460ff19166001179055518391907f1a04f8d389f43beccf2cc32092c53cb34d57ec70fd68693db2bfe79336db783c90610781908790610f17565b60405180910390a3505050565b6107966109d8565b6107a06000610a32565b565b6002602052600090815260409020805481906107bd90610d7f565b80601f01602080910402602001604051908101604052809291908181526020018280546107e990610d7f565b80156108365780601f1061080b57610100808354040283529160200191610836565b820191906000526020600020905b81548152906001019060200180831161081957829003601f168201915b50505050509080600101805461084b90610d7f565b80601f016020809104026020016040519081016040528092919081815260200182805461087790610d7f565b80156108c45780601f10610899576101008083540402835291602001916108c4565b820191906000526020600020905b8154815290600101906020018083116108a757829003601f168201915b50505050600283015460039093015491929160ff8116915061010090046001600160a01b031685565b6000806003836040516109009190610d3c565b9081526020016040518091039020549050600081116109315760405162461bcd60e51b815260040161022e90610ec6565b6001600160a01b0384166000908152600460209081526040808320938352929052205460ff16905092915050565b6109676109d8565b6001600160a01b0381166109cc5760405162461bcd60e51b815260206004820152602660248201527f4f776e61626c653a206e6577206f776e657220697320746865207a65726f206160448201526564647265737360d01b606482015260840161022e565b6109d581610a32565b50565b6000546001600160a01b031633146107a05760405162461bcd60e51b815260206004820181905260248201527f4f776e61626c653a2063616c6c6572206973206e6f7420746865206f776e6572604482015260640161022e565b600080546001600160a01b038381166001600160a01b0319831681178455604051919092169283917f8be0079c531659141344cd1fd0a4f28419497f9722a3daafe3b4186f6b6457e09190a35050565b634e487b7160e01b600052604160045260246000fd5b600082601f830112610aa957600080fd5b81356001600160401b03811115610ac257610ac2610a82565b604051601f8201601f19908116603f011681016001600160401b0381118282101715610af057610af0610a82565b604052818152838201602001851015610b0857600080fd5b816020850160208301376000918101602001919091529392505050565b600080600060608486031215610b3a57600080fd5b83356001600160401b03811115610b5057600080fd5b610b5c86828701610a98565b93505060208401356001600160401b03811115610b7857600080fd5b610b8486828701610a98565b93969395505050506040919091013590565b600060208284031215610ba857600080fd5b81356001600160401b03811115610bbe57600080fd5b610bca84828501610a98565b949350505050565b80356001600160a01b0381168114610be957600080fd5b919050565b60008060408385031215610c0157600080fd5b610c0a83610bd2565b946020939093013593505050565b600060208284031215610c2a57600080fd5b5035919050565b60005b83811015610c4c578181015183820152602001610c34565b50506000910152565b60008151808452610c6d816020860160208601610c31565b601f01601f19169290920160200192915050565b60a081526000610c9460a0830188610c55565b8281036020840152610ca68188610c55565b6040840196909652505091151560608301526001600160a01b031660809091015292915050565b60008060408385031215610ce057600080fd5b610ce983610bd2565b915060208301356001600160401b03811115610d0457600080fd5b610d1085828601610a98565b9150509250929050565b600060208284031215610d2c57600080fd5b610d3582610bd2565b9392505050565b60008251610d4e818460208701610c31565b9190910192915050565b600060018201610d7857634e487b7160e01b600052601160045260246000fd5b5060010190565b600181811c90821680610d9357607f821691505b602082108103610db357634e487b7160e01b600052602260045260246000fd5b50919050565b601f821115610e0357806000526020600020601f840160051c81016020851015610de05750805b601f840160051c820191505b81811015610e005760008155600101610dec565b50505b505050565b81516001600160401b03811115610e2157610e21610a82565b610e3581610e2f8454610d7f565b84610db9565b6020601f821160018114610e695760008315610e515750848201515b600019600385901b1c1916600184901b178455610e00565b600084815260208120601f198516915b82811015610e995787850151825560209485019460019092019101610e79565b5084821015610eb75786840151600019600387901b60f8161c191681555b50505050600190811b01905550565b60208082526015908201527410dbdd5c9cd948191bd95cc81b9bdd08195e1a5cdd605a1b604082015260600190565b600060208284031215610f0757600080fd5b81518015158114610d3557600080fd5b602081526000610d356020830184610c5556fea26469706673582212204854295805164bad1f5cde99ac9a009d6ada0f5d2439903dee5cfadf6aa6222864736f6c634300081c0033",
  "linkReferences": {},
  "deployedLinkReferences": {}
}